:0600000002036F0203750C
:01000B0032C2
:030013000203D015
:0300650002001680
:030016000200687D
:20006800753230753330753530753630753830753930753400753700753A00753B30753CC4
:2000880031753E30753F31754130754230753400753700753A0075441F75450075461C75B0
:2000A800470075481F754900754A1E754B00754C1F754D00754E1E754F0075501F755100C9
:2000C80075521F75530075541E75550075561F75570075581E755900755A1F755B00D28832
:2000E800D28A75A8851202F01202B7D200D201D2021202D37582001202C390003875F04090
:2001080012030975823A1202FC90003575F04012030975823A1202FC90003275F040120333
:20012800097582401202C390003B75F04012030975822D1202FC90003E75F04012030975D8
:20014800822D1202FC90004175F040120309E533F4F590120354AF330F8F33BF3A02800319
:200168000202A5753330AF320F8F32BF360280030202A5753230AF360F8F36BF3A02800314
:20018800020296753630AF350F8F35BF36028003020296753530AF390F8F39BF3A028014EF
:2001A8007434B5390280030202877432B538028003020287753930AF380F8F38BF330280DF
:2001C8000302028775383090003B75F0401207EAAE82AF8390003E75F040C007C0061207BE
:2001E800EAAC82D006D0071CEC2C2444F9870409870519EEB50406EFB5050280030202671E
:20020800753C30753B30AF3F0F8F3FBF3A02800A7433B53F3B7431B53E36753F30AF3E0F41
:200228008F3EBF322B753E30753F31AF420F8F42BF3A0E754230AF410F8F41BF3A037541C5
:20024800307582461202C390004175F0401203097582431202C390003E75F040120309AF6D
:200268003C0F8F3CBF3A09753C30E53BFF04F53B7582401202C390003B75F0401203097519
:2002880082001202C390003875F0401203097582031202C390003575F0401203097582061C
:2002A8001202C390003275F040120309020156C2A3759006D2A2C2A2020336AF82C2A374F4
:2002C800804FF590D2A2C2A2020336C297C296C295C294D293A2009292A2019291A202922A
:2002E80090D2A2C2A2020336C2A3759038D2A2C2A2020336AF82D2A38F90D2A2C2A20203FC
:2003080036AD82AE83AFF08D828E838FF01208CDFCA3AD82AE83ECFB60138B82C007C00627
:20032800C0051202FCD005D006D00780DA227F32EF14FEFF70FA227EF37F02EE24FFFCEFB7
:2003480034FFFD8C068D07EC4D70F0227589017F01EF6012758AAF758C3CD28C308DFDC2DF
:200368008CC28D1F80EB2275815F020068C021C0E0C0F0C082C083C007C006C005C004C0A3
:2003880003C002C001C000C0D075D008E4F530F53175820075D0001202C375D00820B20BC6
:2003A80075D00012042C75D00880F2D0D0D000D001D002D003D004D005D006D007D083D090
:2003C80082D0F0D0E0D02132C021C0E0C0F0C082C083C007C006C005C004C003C002C001EE
:2003E800C000C0D075D00875302875310075822875D0001202C375D00820B30B75D0001228
:2004080004FF75D00880F2D0D0D000D001D002D003D004D005D006D007D083D082D0F0D0A1
:20042800E0D021327FF77E007D007580FFEF528074705580FCBC70030204ECECF4FB7470F6
:200448005BC4035407FCE4BE030104FB6007EC70047A23801FEB6007BC02047A2A8015EB3B
:200468006007BC01047A30800BEE0475F003A4C39C2430FAC00212033FD002BA2320053052
:20048800E4B5300205317408B53006E4B5310280028005E4F530F5318530820202C3BA2A08
:2004A8001F153074FFB53002153174FFB5300B74FFB531067530077531008530820202C31E
:2004C8008A821205D70530E4B5300205317408B53006E4B53102800122E4F530F5317582E8
:2004E800000202C3EFC313FF4307F00D8D06BD04005003020432227FF77E007D007580FFBC
:20050800EF528074705580FCBC70030205C4ECF4FB74705BC4035407FCE4BE030104FB6026
:2005280007EC70047A23801FEB6007BC02047A2A8015EB6007BC01047A30800BEE0475F024
:2005480003A4C39C2430FAC00212033FD002BA23210530E4B5300205317430B53006E4B5FB
:200568003102800280067530287531008530820202C3BA2A22153074FFB530021531742741
:20058800B53006E4B531028002800675302F7531008530820202C38A821206C30530E4B567
:2005A800300205317430B53006E4B531028001227530287531007582280202C3EFC313FFB0
:2005C8004307F00D8D06BD0400500302050522AF82E5304531600D7401B53006E4B53102A2
:2005E8008002804AE53045317024C374B28FF063F08095F04009BF3210E53924CC500A1501
:200608003074FFB530021531228F380206BE7432B53816C374B38FF063F08095F0500A157A
:200628003074FFB530021531228F390206BE7403B53008E4B5310474018001E4FE700D7437
:2006480004B53006E4B5310280028021EE601AC374B58FF063F08095F0500A153074FFB5C2
:2006680030021531228F35804D8F3680497406B53008E4B5310474018001E4FE700D7407B4
:20068800B53006E4B5310280028021EE601AC374B58FF063F08095F0500A153074FFB53056
:2006A800021531228F32800E8F33800A153074FFB530021531228F820202FCAF827428B593
:2006C8003008E4B5310474018001E4FE700D7429B53006E4B531028002806CEE6064EFFD57
:2006E8003395E0FEED24D0F55EEE34FFF55F90000AC0071208B0AD82AE83AB3C7C00EB24A6
:20070800D0FBEC34FFFCEB2DFDEC3EFE90003E75F040C006C0051207EAAB82D005D006D005
:20072800071BEB2B2444F98703098704C3EB9DEC9E500A153074FFB530021531228F3B02F8
:2007480007E58F3C0207E5742BB53008E4B5310474018001E4FE700D742CB53006E4B531E8
:200768000280028045EE6023C374B18FF063F08095F04009BF3110E53F24CD500A15307487
:20078800FFB530021531228F3E80527431B53E16C374B28FF063F08095F0500A153074FFE4
:2007A800B530021531228F3F8033742EB53008E4B5310474018001E4FE700D742FB5300621
:2007C800E4B531028002800BEE60048F41800E8F42800A153074FFB530021531228F820213
:0207E80002FC11
:06003B00E478FFF6D8FD99
:2007EA00AD82AE83AFF0E4F55CF55D8D008E018F02888289838AF01208CDFC3395E0FBBCEA
:20080A0020028003BC090708B800E60980E3880589068A07888289838AF01208CDFCBC2D42
:20082A0003D38001C39203BC2D028003BC2B050DBD00010E8D828E838FF01208CDFC339582
:20084A00E0FBBC30004048EC24C64043855C5E855D5F90000AC007C006C0051208B0AB8283
:20086A00AC83D005D006D0078D828E838FF01208CDFAA3AD82AE83EAF93395E0FAE924D0D8
:20088A00F9EA34FFFAE92BF55CEA3CF55D80A530030BC3E4955CFEE4955DFF8004AE5CAF56
:0608AA005D8E828F8322A7
:200019007900E94400601B7A009008E9780175A000E493F2A308B8000205A0D9F4DAF2759C
:02003900A0FF26
:1D08B000E582855EF0A4C582C0F0855FF0A4D0F025F0C583855EF0A42583F5832208
:200041007800E84400600A790175A000E4F309D8FC7800E84400600C7900900001E4F0A3BD
:04006100D8FCD9FAF4
:1C08CD0020F71430F6148883A88220F507E6A88375830022E280F7E49322E0223A
:00000001FF
