:20000000753133753232753331753436753535753634753739753838753937753A23753B87
:2000200030753C2A753E00753F0075400075410075420075430075440075450075460075D1
:200040004700754800754900754A00754B00754C00E4F54DF54EF54FF550F551F552F553D7
:20006000F5547A007C00C004C0021202361201FDD002D004D200D201D202C004C0021202A8
:2000800019D002D0047BF77E008E3D7580FFEB528074705580F5307470B5300302015DE546
:2000A00030F4FD74705DF530C4035407F530EE75F003A424312530F9873EC004C002120276
:2000C00058D002D0047423B53E3175823D12024290003F75F04012028B8582558583569080
:2000E000004575F04012028BAD82AF83ED2555FAEF3556FCE4F551F5528076742AB53E1A2D
:2001000075822BC004C002120242D002D004755301E4F554F551F5528057E553455470118F
:20012000E551243FF8A63E0551E4B551200552801C7401B55306E4B554028002800FE5513E
:200140002445F8A63E0551E4B551020552853E82C004C002120242D002D0048014EBC313A5
:20016000FB4303F0053DAE3D74FC253D400302008B7423B53E028003020085AE51AF52EAFF
:200180004C604E75590A755A008A828C83C007C006C004C00212036EAB82AD83D002D0040A
:2001A00075590A755A008A828C83C005C003120262AA82AC83D003D005D006D00774302B00
:2001C000FBE43DFDEE244BF9A7030EBE00B10F80AE758240C007C006120209D006D007EFCF
:2001E00020E7181EBEFF011FEE244BF98782C007C006120242D006D00780E480FEC2B3752A
:200200009006D2B2C2B202024FAF82C2B374804FF590D2B2C2B202024FC297C296C295C27A
:2002200094D293A2009292A2019291A2029290D2B2C2B202024FC2B3759038D2B2C2B2027C
:20024000024FAF82D2B38F90D2B2C2B202024F7F32EF14FEFF70FA227FFF8F061EEEFF7062
:02026000F92281
:200262007A10E4FBFCE58225E0F582E58333F583EB33FBEC33FCEB9559F5F0EC955A40060E
:09028200FCABF0438201DADD223D
:20028B00AD82AE83AFF0E4F557F5588D008E018F02888289838AF01203BBFC3395E0FBBC6F
:2002AB0020028003BC090708B800E60980E3880589068A07888289838AF01203BBFCBC2DBE
:2002CB0003D38001C39203BC2D028003BC2B050DBD00010E8D828E838FF01203BBFC3395FE
:2002EB00E0FBBC30004048EC24C6404385575985585A90000AC007C006C005120351AB8260
:20030B00AC83D005D006D0078D828E838FF01203BBFAA3AD82AE83EAF93395E0FAE924D053
:20032B00F9EA34FFFAE92BF557EA3CF55880A530030BC3E49557FEE49558FF8004AE57AFD3
:06034B00588E828F832210
:1D035100E5828559F0A4C582C0F0855AF0A4D0F025F0C5838559F0A42583F583227B
:20036E00E559455A60467A01E55925E0F559E55A334012F55AE5829559E583955A40030AD4
:20038E0080E6C3E55A13F55AE55913F559C3E5829559F5F0E583955A4005F58385F082C31B
:0D03AE00E55A13F55AE55913F559DAE12225
:1C03BB0020F71430F6148883A88220F507E6A88375830022E280F7E49322E02251
:00000001FF
